S00D000049432D56312E73726563D7
S11300000C9434000C943E000C943E000C943E007E
S11300100C943E000C943E000C943E000C943E0064
S11300200C943E000C943E000C943E000C943E0054
S11300300C943E000C943E000C943E000C943E0044
S11300400C943E000C943E000C943E000C943E0034
S11300500C943E000C943E000C943E000C943E0024
S11300600C943E000C943E0011241FBECFEFD4E04C
S1130070DEBFCDBF0E9440000C9469000C940000C8
S113008080E287B98CE188B9349903C088B1806271
S113009088B9339903C088B18F7D88B93299F4CF78
S11300A088B1806288B92FE788E391E021508040CD
S11300B09040E1F700C0000088B18F7D88B92FE738
S11300C088E391E0215080409040E1F700C00000B7
S10900D0DBCFF894FFCF22
S9030000FC
